:020000040800F2
:100000007007002079020008471C00083F1C000808
:10001000431C0008231B00080923000800000000FF
:10002000000000000000000000000000F11F0008B8
:10003000271B000800000000B91C0008052100086B
:10004000930200089302000893020008930200083C
:10005000930200089302000893020008930200082C
:10006000930200089302000893020008930200081C
:10007000930200089302000893020008930200080C
:1000800093020008930200089302000893020008FC
:1000900093020008930200089302000893020008EC
:1000A00093020008930200089302000893020008DC
:1000B00093020008930200089302000893020008CC
:1000C00093020008930200089302000893020008BC
:1000D00093020008692100089302000893020008B7
:1000E000930200089302000893020008930200089C
:1000F000930200089302000893020008930200088C
:10010000930200089302000893020008930200087B
:10011000930200089302000893020008930200086B
:10012000930200089302000893020008930200085B
:1001300000F002F800F090F80AA090E8000C824469
:100140008344AAF10107DA4501D100F085F8AFF246
:10015000090EBAE80F0013F0010F18BFFB1A43F0A5
:10016000010318473C3800005C380000103A24BFF7
:1001700078C878C1FAD8520724BF30C830C144BF0C
:1001800004680C607047000000230024002500264E
:10019000103A28BF78C1FBD8520728BF30C148BFEA
:1001A0000B6070476E2900F00182702900F04D83CA
:1001B000662903F07283652903F06F83672903F0D2
:1001C0006C83612903F06B8303681B0A28BF41F02D
:1001D0008001692900F0AE81642900F0AB817529A6
:1001E00000F0A8816F2900F0DB82782900F01983E4
:1001F000E92900F07582E42900F07282F52900F007
:100200006F82EF2900F0D882F82900F01883036884
:10021000DB0928BF41F08001632900F0E5817329E3
:1002200000F0EA81E32900F06787F32900F06C878A
:10023000002070471FB500F0B9FF04000020002126
:1002400002F038FD401C60600020002102F01CFD1F
:10025000E0601FBD10B510BD00F07AFF1146FFF73A
:10026000E9FF02F07EFA01F053F803B4FFF7F2FF62
:1002700003BC02F066F800000948804709480047BF
:10028000FEE7FEE7FEE7FEE7FEE7FEE7FEE7FEE746
:10029000FEE7FEE704480549054A064B70470000A3
:1002A00009210008310100087001002070070020BA
:1002B0007003002070030020704700000A460149C7
:1002C00000F09EB9000100200FB4044910B503AA44
:1002D000029800F095F910BC5DF814FB00010020B5
:1002E00070B50C460546012A05D02878800600D551
:1002F000EA69002302E0012305E05B1C934202D27D
:10030000E05C0028F9D1A869E618C01AA861286A3B
:1003100018442862284600F0D4F804E0D5E9012109
:1003200014F8010B9047B442F8D3284600F0DFF8E8
:1003300070BD00002DE9F05F894604464FF0000AC9
:10034000DFF874B1FB44C0F820A02046E16888477C
:10035000002874D0252806D0D4E901219047206ACE
:10036000401C2062F1E700265F462046E16888478E
:100370002028054607DB312D05D2781910F8200C0E
:1003800008B10643F1E7B00701D526F00406C4F82A
:100390001CA00027C4F818A02A2D09D0284601F077
:1003A000C9FF38B304EB8708303DC8F8185019E08E
:1003B00059F8041B204604EB87029161E1688847E5
:1003C000012F054618D1E069002820DA26F0200622
:1003D0001DE0D8F8180000EB800005EB4000303835
:1003E000C8F818002046E1688847054601F0A2FFDA
:1003F0000028EED1012F0AD02E2D08D12046E16829
:1004000088477F1C0546022F46F02006C4DBA06902
:10041000002803DA404246F00106A061F00701D04F
:1004200026F010066C2D0BD0682D09D04C2D39D03C
:100430006A2D35D0742D35D07A2D33D016E038E0C2
:10044000E1682F4620468847B842054609D16C2FFF
:1004500026D04FF48060E168064320468847054671
:1004600004E06C2F1AD04FF4807006430DB3A5F151
:100470004100192802D8203546F400664A4629462C
:10048000204626604E46FFF78DFE80B101280BD036
:10049000F61D26F0070000F1080956E74020E4E7C2
:1004A0008020D8E70020D6E706F104094DE728466A
:1004B00052E7206ABDE8F09F5A3500007047704748
:1004C000704770B5044685690068C10601D53026BD
:1004D00000E02026C00707D070BDD4E901213046D6
:1004E0009047206A401C20626D1EF6D570BD70B525
:1004F000044685690078C00707D170BDD4E90121A1
:1005000020209047206A401C20626D1EF6D570BDE9
:1005100009684A0501D540B27047C905FCD500B24B
:10052000704709684A0501D5C0B27047C905FCD5B6
:1005300080B270472DE9F041064600241068752905
:10054000314616A510D0FFF7E3FF002802DA40423B
:1005500013A507E031688A0701D512A502E0490713
:1005600004D511A5012401E0FFF7DBFF00210A22D9
:1005700006F1240709E0B0FBF2FCB0FBF2F302FB4A
:100580001C00303078541846491C0028F3D123460B
:100590002A463046BDE8F04100F0A7B9000000004F
:1005A0002D0000002B0000002000000011680268F0
:1005B000006A530501D508700AE0D30501D508800B
:1005C00006E0130603D5C217C1E9000200E0086087
:1005D0000120704710B5436913B1AFF3008001E00B
:1005E000FFF77EFE012010BD127800F124010A7091
:1005F00000224A700122EDE711684FF0FF32E9E76F
:10060000074B70B50D467B4400F059FD0446284663
:1006100001F099FE10B14FF0FF3070BD204670BD63
:10062000471D00002DE9FF5F15468A460446DFF8A6
:10063000AC80F8440027D8E900103E46CDE9001010
:1006400010E03AF816106A4602A800F061FD411C5D
:1006500007D02178890603D5E269391891420DD86F
:100660000744761C2078800602D5E069B84205DD93
:10067000AE42E6DB3AF816000028E2D1A069C01BC2
:10068000A0612046FFF71DFFD8E90010CDE900105A
:10069000002017E03AF818106A4602A800F038FD6A
:1006A000B0F1FF3F81460BD000250DF1080B05E0AE
:1006B000D4E901211BF8050090476D1C4D45F7D387
:1006C00008F10100B0428046E4DB206A3844206231
:1006D0002046FFF70CFFBDE8FF9F00007E320000C0
:1006E0002DE9F0418046D21D22F007020025D2E913
:1006F0000002F52915A614D0011E72F1000106DAD8
:100700000023D0EB030063EB020211A608E0D8F847
:1007100000108B0701D50FA602E0490701D50EA6F0
:1007200001251146002408F1240704E000F098F8A0
:1007300030323A55641C50EA0102F7D12B4632465A
:1007400021464046BDE8F04100F0CFB8000000006F
:100750002D0000002B0000002000000030B400211C
:1007600000F1240408E002F00705D208303542EA1F
:100770004372DB086554491C52EA0305F3D104684F
:10078000002310A2250708D504F020040C4304D050
:10079000C46901230CA2641EC46130BC00F0A5B87A
:1007A00010B5044621461068FFF7BBFE02462046FE
:1007B000BDE810400023D1E7D21D22F00701D1E9A6
:1007C0000023CBE70000000030000000F0B40D462D
:1007D0000188090502D5214C7C4402E01F4C7C4471
:1007E0000E34002100F1240608E002F00F07120980
:1007F000E75D42EA03721B097754491C52EA03077A
:10080000F3D102780023120704D5702D06D009B168
:10081000022311342246F0BC00F067B801231034E3
:10082000F8E770B504460D4621461068FFF779FEDB
:10083000024629462046BDE870400023C6E7D21D87
:1008400022F00703D3E90023C0E70368126843F0EE
:10085000200303600823C3610023B7E7E0300000F2
:1008600030B5B0F10A024FEA900E71F100034EEA82
:10087000817EB0EB0E0061EB91014FEA101E4EEA53
:10088000017E10EB0E0041EB11114FEA102E4EEAE3
:10089000016E10EB0E0041EB11214FEA104E4EEAB3
:1008A000014E10EB0E0041EB1141401841F10001E7
:1008B0004FEAD00040EA41704FEAD10110EB8005C9
:1008C0004FEA810444EA907444EB01046D1944EB4F
:1008D0000404521BA3414FF0000348BF0A3200D565
:1008E00030BD401C41F1000130BD2DE9F0470D46FF
:1008F00099469246044600F124080168880604D50A
:10090000E06921F01001216000E00120A84201DD32
:10091000471B00E00027A1697A1902EB0900081AB9
:10092000A0612078C00602D42046FFF7CAFD002649
:1009300008E0D4E901211AF806009047206A401C1B
:10094000761C20624E45F4DB2078C0060AD520468E
:10095000FFF7B7FD06E0D4E9012130209047206A77
:10096000401C2062381EA7F10107F4DC07E0D4E93F
:10097000012118F805009047206A401C2062281EBB
:10098000A5F10105F3DC2046FFF7B1FD2078000654
:1009900002D50220BDE8F0870120FBE770472DE972
:1009A000FF4F0C461E464FF0FF378BB0D2E90001D7
:1009B000DDF860800A908A46C1F30A5505B93D46C4
:1009C000002108464FF00000BAF1000F00F440008B
:1009D00005DA00EB80004FF4400101EA50004FEAD5
:1009E0009059B9F1010F00DDB9460A9850EA4A0062
:1009F0000ED044F61050A5F2FF3545432F14B8F140
:100A0000000F1ED07542291E1EDDC9F100021CE038
:100A1000B8F1010F4FF0000001D0302103E0F243A4
:100A200005E02154401CB042FBDB3046002200218F
:100A300021540B99C1F80880C1E900200FB0BDE82E
:100A4000F08FBD1B6D1CDEE74A4600DA694206A83E
:100A500000F0F0FB06AB93E8070003AB83E8070068
:100A600050460A9900F0A2FC8DE80700A0F500505E
:100A70001F3800900398002D09DD42F21F014A46FD
:100A8000084403A90390684600F001FF08E0A0F5C0
:100A900000504A461F3803A90390684600F00BFF38
:100AA0008DE807000004000C03D04FF0FF30410830
:100AB00000E01046B8F1000F03D000220092154666
:100AC0001EE0751E05D4FFF7CBFE303262556D1E59
:100AD000F9D5B3460122084302D000227F1C04E06E
:100AE0002078302801D100227F1E002A099786D065
:100AF0001DE0112D07DAFFF7B3FE303262556D1C91
:100B000050EA0102F5D1084302D00098C8B10EE0C6
:100B10000021681E05E0235C625C63542254401E81
:100B2000491C8142F7DBAB46A81B401E0990002000
:100B300004F80B000B98099AC0F80880C0E9002B54
:100B40007CE711264FF0000859E72DE9F04F884661
:100B50000446D21D22F0070191B0D1E90001CDE990
:100B60000A0101F0D3FB02460B98C00F01D02D20E3
:100B700007E02068810701D52B2002E0202101EA4F
:100B8000C000032A099001D0072A05DB034641462D
:100B9000204600F00FFB0BE12078800601D5E069CC
:100BA00000E00620B8F1650F814606D0B8F1660F67
:100BB00018D0B8F1670F70D131E00020B9F1110FF2
:100BC000009001DB112301E009F101030AAA01A948
:100BD0000CA8FFF7E4FEDDE90C70002609F1010521
:100BE000834647E001204B4600904FF000470AAA99
:100BF00001A90CA8FFF7D3FEDDE90DB00C995D4605
:100C0000002610B909F101000D18B9EB050003D455
:100C1000C0F1FF3609F10105A5EB09002BE0B9F1A0
:100C2000010F01DA4FF001090020B9F1110F009016
:100C3000484601DD112300E003460AAA01A90CA8D9
:100C4000FFF7ADFEDDE90C704D46002683462078A7
:100C500000070AD4AB4500DA5D4601A8012D04DD8A
:100C6000411911F8011C302907D04F4502DA17F15C
:100C7000040F04DA012082460FE06D1EEEE7002F1C
:100C800002DCED1B3E4403E0781CA84200DD7D1C25
:100C9000B81B00F1010A4FF000472078000703D489
:100CA000AA4501DB4FF0FF3A0021B7F1004F0DF1EB
:100CB00043088DF8431024D002202B23002F01DAA3
:100CC0007F422D230A21021EA0F1010000DC5FB14A
:100CD00097FBF1FC97FBF1F201FB1C7C17460CF132
:100CE000300C08F801CDEEE7A8F10100037021886F
:100CF000090501D5452100E06521A0F1010800F8B2
:100D0000011C09980FA9A1EB0807FF1D00B10120E4
:100D1000411901EBEA70A1693844081A401EA0612C
:100D20002078C00602D42046FFF7CBFB099828B1F3
:100D3000D4E901219047206A401C20622078C00637
:100D400022D52046FFF7BDFB1EE0002E04DBB34595
:100D500002DD01A8805D00E03020D4E90121904748
:100D6000206A401C2062761CAAF101005FEA000A9A
:100D70000AD100F01BFAC0680168405CD4E9012187
:100D80009047206A401C2062281EA5F10105DCDC8A
:100D900007E0D4E9012118F8010B9047206A401CB4
:100DA0002062381EA7F10107F3DC2046FFF79FFB06
:100DB000032011B043E600002DE9F04F04460D4634
:100DC000D21D22F0070089B0D0E9009248461746AC
:100DD000394601F09BFA0246F80F01D02D2307E0B7
:100DE0002068810701D52B2302E0202101EAC003FE
:100DF0008DF820300BB1012000E00020032A82464C
:100E000001D0072A04DB2946204600F0D3F93DE152
:100E10002078800601D40D2500E0E569C7F30A5665
:100E20000D2D49DA00214FEA175B08464FF000000C
:100E3000002F00F4400007DA00EB80004FF440017F
:100E400000EBD07001EA60008115012901DD4FF04F
:100E5000FF3100224FEA850CBCF1180F06D3134670
:100E6000ACF118004FF08052C24003E04FF4801301
:100E700023FA0CF30CF10C0CBCF1200F04D3ACF1F1
:100E8000200C09FA0CF001E007FA0CF000294FF0F1
:100E9000004801DD18B90FE00ED140450CD319EB25
:100EA00002095F4121B9404502D19F4329EA020965
:100EB000BBEB175F00D0761C2088000502D57B486D
:100EC000784402E079487844193808AA302302F8B7
:100ED0000A30037C0AF10101002E0AF1020A535480
:100EE0006A4602DC4FF0300101E04FF031014FF073
:100EF00001088DF8001002D0A6F2FF3603E059EA8F
:100F0000470100D06A4E002D02DC2178090704D584
:100F10004FF002082E218DF80110C44600210BE08D
:100F2000C7F303433F01C35C491C6D1E02F8083040
:100F3000052908F1010801DA002DF1DC00210CE09F
:100F400000EB1973491C1B786D1E082902F8083044
:100F50004FEA091908F1010801DA002DF0DC2178C7
:100F6000890602D514E0A8F10108E04505DD02EB91
:100F7000080111F8011C3029F5D0B8F1000F07DD88
:100F800002EB080111F8011C2E2901D1A8F101087A
:100F9000002D05DD3E2102F808106D1E08F1010844
:100FA000407C002E02F8080008F1010804DA2D2028
:100FB000764202F8080002E02B2002F808000A211D
:100FC0004FF47A70864208F101080BDB96FBF0F3D0
:100FD000303302F8083096FBF0F308F1010800FB0B
:100FE000136601E0642E0CDB642096FBF0F33033D3
:100FF00002F8083096FBF0F308F1010800FB1366D5
:1010000001E00A2E06DB96FBF1F0303002F8080012
:1010100008F1010896FBF1F001FB1060303002F896
:101020000800A16908F1010808EB050202EB0A00BB
:10103000081AA0612078C00602D42046FFF741FAC2
:10104000216A08AE01EB0A00206204E0D4E9012124
:1010500016F8010B9047BAF1010AF7D22078C006C2
:1010600002D52046FFF72DFA6E4609E016F8010B6F
:101070003E280FD0D4E901219047206A401C20620D
:10108000B8F10108F2D22046FFF731FA09B0032087
:10109000BDE8F08F206A2844206203E0D4E90121F2
:1010A000302090476D1EEBD3F8E70000332A000094
:1010B00002FCFFFF01694A1C02610878704700B515
:1010C0008FB0CDE901310021059105497944CDE981
:1010D000031011466846FFF72DF90FB000BD000060
:1010E000E5FFFFFF10B5436913B1AFF3008001E0E6
:1010F000FFF798FA012010BD128800F124018284C4
:101100000022C2840122EDE711684FF0FF32E9E7C7
:1011100070B516460C46054600F040F8036893F893
:101120000101012806D0FF2C0FD8185D68B10120FD
:101130002C7070BDD3F807013246214603F2071325
:1011400003442846BDE8704018474FF0FF3070BD9B
:10115000754600F0E7F8AE4605006946534620F0B4
:101160000700854618B020B5FFF794F8BDE8204089
:101170004FF000064FF000074FF000084FF0000B53
:1011800021F00701AC46ACE8C009ACE8C009ACE806
:10119000C009ACE8C0098D467047000010B500F0EA
:1011A00005F8001D10BD00BF0D1B00000048704772
:1011B0002C0100202DE9F0411F460446032601685A
:1011C000072A01F4006004DB08B116A505E016A5A6
:1011D00003E008B115A500E015A521F0100020607E
:1011E000A069C01EA0610FB1401EA0612046FFF79C
:1011F00068F94FB1D4E9012138469047206A401C74
:101200002062C01C206206E0206AFAE7D4E90121CE
:1012100015F8010B9047761EF8D22046FFF767F9C4
:10122000BDE8F0814E414E006E616E00494E4600B1
:10123000696E66002DE9F047814616468AB033484C
:1012400078440DC88DE80D0030487844801C03AC0C
:101250000DC884E80D0041F69B300844372190FB0F
:10126000F1F290FBF1F5A5F1800501FB12041B3CA6
:1012700002D56442012000E00020DFF890A0804603
:101280000027FA44AAF1BE0A0DE0E00709D0324671
:10129000684607EB47010AEB810100F00CFB8DE883
:1012A000070064107F1C002CEFD1184F7F44AC3F27
:1012B00018E0E80714D007EB04100DF1180A90E8C5
:1012C0000E008AE80E00C068F04201D1981908901B
:1012D000324606A903A800F0EEFA03AB83E8070044
:1012E0006D10641C002DE4D132466946B8F1000F40
:1012F00003A802D000F0CBFA01E000F0DCFAC9E963
:101300000001C9F808200AB0BDE8F08744270000B2
:1013100010B50446AFF300802046BDE81040FEF74C
:10132000A4BF0000004870470C0100204FF0013CB2
:1013300050F8042B51F8043B9A4221D1A2EB0C0344
:10134000934313EACC1317D150F8042B51F8043B04
:101350009A4215D1A2EB0C03934313EACC130BD1A1
:1013600050F8042B51F8043B9A4209D1A2EB0C032C
:10137000934313EACC13DBD04FF00000704700BF5B
:10138000D01A01BAB1FA81F101F0180122FA01F084
:10139000CB40C1F12001DBB2C0B2C01A2CFA01F37C
:1013A000D11A914311EAC311E6D170475FEA400CAC
:1013B00008BF91F0000F4FEA8C234FEAC12243EAA5
:1013C00051514FEA1C5018BF00F5F0404FEA300071
:1013D00018BF41F000415FEA6C5C00F02980BCF16D
:1013E000FF3F08BF40F080407047130C06BF120457
:1013F0004FF0100C4FF0000C130E04BF12020CF152
:10140000080C130F04BF12010CF1040C930F04BF5E
:1014100092000CF1020CD30F04BF52000CF1010C2E
:1014200011464FF00002A0F11F00A0EB0C00704726
:1014300011F0004F08BF704731F000413FF4D5AFC5
:101440000B0C06BF09044FF0100C4FF0000C0B0EF4
:1014500004BF09020CF1080C0B0F04BF09010CF1C9
:10146000040C8B0F04BF89000CF1020CCB0F04BFDE
:1014700049000CF1010CCCF12003A0EB0C0022FA86
:1014800003F302FA0CF241EA030100F10100704794
:1014900020F07F4C80EA030023F07F47ACEB07038A
:1014A00003F57C5300F0004003F1FF032DE9804970
:1014B0004FEA154B09B44FEA144325EA0B4E24EAD0
:1014C00003480FF2042606EB132749083E785FEA2B
:1014D000320203FB0667C7F5000707FB06F64FEA73
:1014E00054374FEAD64606F1020607FB066CCCF1EC
:1014F000005C4FEA1C472CEA074C07FB06F40CFB88
:1015000006F504EB15464FEA961634BF00204FF05F
:1015100000404FEAD13706FB07FC4FEA1C4C0CFB9E
:101520000BF7D21B03FB0CF761EB07010CFB0EF76B
:10153000B0EB074072EB17420CFB08F734BFA2EB8D
:101540000742B2EB074261EB17414FEA0C444FEA06
:10155000910706FB07FC4FEA1C4C0CFB0BF7B0EBAA
:10156000C74072EB573203FB0CF734BFA2EBC74204
:10157000B2EBC74261EB57310CFB0EF7B0EBC70083
:1015800072EB57720CFB08F734BFA2EBC702B2EB49
:10159000C70261EB5771039F4FEA816141EA9211E3
:1015A00004EBCC044FEAD1374FEA826206FB07FC1A
:1015B00042EA90124FEA80604FEA1C4C0CFB0BF79A
:1015C000D21B03FB0CF761EB07010CFB0EF7B0EB32
:1015D000074072EB17420CFB08F734BFA2EB07423F
:1015E000B2EB074261EB17414FEA8C554FEA910786
:1015F00004EB9C2406FB07FC4FEA1C4C0CFB0BF78E
:10160000B0EBC74072EB573203FB0CF734BFA2EBD1
:10161000C742B2EBC74261EB57310CFB0EF7B0EBA0
:10162000C70072EB57720CFB08F734BFA2EBC7027E
:10163000B2EBC70261EB577115EB4C254FEA8161A4
:1016400041EA92114FEA82624FEAD13742EA9012A0
:1016500006FB07FC44F100044FEA80604FEA1C4C93
:101660000CFB0BF7D21B03FB0CF761EB07010CFB28
:101670000EF7B0EB074072EB17420CFB08F734BFD4
:10168000A2EB0742B2EB074261EB174115EB1C15C9
:101690004FEA813141EA92414FEA823242EA904276
:1016A0004FEA80304FEA0C7644F1000448EA0343E5
:1016B0004EEA0B484FF0000EB2EB080C71EB03073B
:1016C00024BF624639464EEB0E0E4FF0000B001859
:1016D000524149414BEB0B0BB2EB080C71EB03078A
:1016E0007BF1000B24BF624639464EEB0E0E4FF0E5
:1016F000000B0018524149414BEB0B0BB2EB080CAD
:1017000071EB03077BF1000B24BF624639464EEBB9
:101710000E0E51EA020718BF46F0010616EB0E76D0
:1017200055F1000254F1000103D5BDE88901BDE87F
:101730000088BDE88901BDE80048B619524141EB77
:101740000101A3F10103704780807F7E7D7C7B7A5D
:101750007978777676757473727171706F6E6E6D5D
:101760006C6C6B6A6A696868676666656464636303
:1017700062616160605F5F5E5E5D5D5C5C5B5B5A89
:101780005A595958585757565655555554545353F6
:1017900052525251515050504F4F4F4E4E4D4D4D51
:1017A0004C4C4C4B4B4B4A4A4A494949484848479C
:1017B00047474746464645454544444444434343DA
:1017C0004342424242414141002B26D4770021D07E
:1017D0001CB54FEA370703B44FF010004FF010016B
:1017E0004FF000000FBCBDE810400BF1010BBBF146
:1017F000010F08BF5FEA170722BF12F1010211F1C2
:1018000001014FF0004143F1000300F0004043EAC2
:1018100000007047F9D35708DAE746EA064613F1A5
:10182000400F4FEA16461FDD13F1200FDFBF1643AE
:101830000A46002120335B42C8D0C3F1200746EAA4
:10184000064602FA07F74FEA164646EA0706C3F1CC
:10185000200722FA03F201FA07F721FA03F14FF009
:10186000000342EA0702B1E746EA020646EA0646F4
:101870004FEA164646EA0106BCBF46EA0646360C63
:101880004FF000034FF000024FF000019EE72DE9FA
:10189000C048934630B491E8380007C831EA400C9C
:1018A00048BF34EA430C03D5FFF7F2FDFFF78CFF86
:1018B000F0BCBDE800882DE9C048934630B491E8FB
:1018C000380007C810F0804F08BF13F0804F03D1D5
:1018D00000F005F8FFF778FFF0BCBDE8008820F0C5
:1018E0007F4780EA030023F07F4C07EB0C03A3F54E
:1018F0007C5300F00040A3F1FE0392F0000F00F0D3
:10190000B38095F0000F00F077802DE901494FEA90
:1019100011404FEA144621EA004800FB06FC24EA85
:10192000064708FB06F607FB08F800FB07F718EB6D
:1019300006484CEB164C4FEA124B18EB07484FEA9F
:1019400015464CEB174022EA0B4E0BFB06FC25EA32
:1019500006470EFB06F607FB0EFE0BFB07F71EEB1A
:10196000064E4CEB164C4FF000061EEB074E4CEBB0
:10197000174B18EB0B0840F1000018EB0E0B58EB5F
:10198000000840F100008F1A4FF000013CBFC9432E
:10199000661B14BFB5EB040C00213CBFC943F61B0A
:1019A0004FEA17444EEA8E0E27EA04454FEA1C47D9
:1019B00004FB07622CEA074C05FB07F70CFB05F656
:1019C00004FB0CFC16EB074642EB174216EB0C46E9
:1019D00042EB1C421BEB060658EB0202414146EA71
:1019E0009E0601D5BDE80189B619524141EB0101BE
:1019F000A3F10103BDE801894FEA14454FEA1147FD
:101A000024EA054621EA074C05FB07F406FB07F725
:101A10000CFB06F105FB0CFC11EB074144EB1744F2
:101A20004FEA124711EB0C4144EB1C4422EA074CED
:101A300005FB07F206FB07F70CFB06F605FB0CFCA3
:101A400016EB074642EB174216EB0C4642EB1C45E1
:101A50006A1854F1000148BF7047B619524141EB72
:101A60000101A3F10103704795F0000F37D04FEA51
:101A700011424FEA144721EA024624EA074C02FBCE
:101A800007F106FB07F70CFB06F402FB0CFC14EB5A
:101A9000074441EB17414FEA154714EB0C4441EB67
:101AA0001C4125EA074C02FB07F506FB07F70CFB78
:101AB00006F602FB0CFC16EB074645EB174516EB4A
:101AC0000C4645EB1C42121951F1000148BF70470A
:101AD000B619524141EB0101A3F1010370474FEAEE
:101AE00014454FEA114724EA054621EA074C05FB55
:101AF00007F106FB07F70CFB06F24FF0000605FBAB
:101B00000CFC12EB074241EB174112EB0C4251EB7C
:101B10001C4148BF7047921841EB0101A3F101033A
:101B2000704700BFFEE770472DE9F04102460025EF
:101B30000026002000230024002791F803C00CF0A9
:101B40000F0591F803C00CF0100CBCF1000F03D08E
:101B500091F802C04CEA050591F800C0BCF1000FF5
:101B600031D0146800202BE04FF0010C0CFA00F388
:101B7000B1F800C00CEA03069E4220D183004FF06A
:101B80000F0C0CFA03F7BC4305FA03FC4CEA0404FF
:101B900091F803C0BCF1280F06D14FF0010C0CFAEC
:101BA00000FCC2F814C00AE091F803C0BCF1480F71
:101BB00005D14FF0010C0CFA00FCC2F810C0401C1B
:101BC0000828D1D31460B1F800C0BCF1FF0F34DD98
:101BD000546800202EE000F1080C4FF0010808FACC
:101BE0000CF3B1F800C00CEA03069E4221D1830039
:101BF0004FF00F0C0CFA03F7BC4305FA03FC4CEA58
:101C0000040491F803C0BCF1280F05D100F1080CC1
:101C100008FA0CF8C2F8148091F803C0BCF1480F20
:101C200007D100F1080C4FF0010808FA0CF8C2F8CF
:101C30001080401C0828CED35460BDE8F08100BF5E
:101C4000FEE700BFFEE7704770B5002100230F22BA
:101C5000C47804B3154C246804F4E064C4F5E0646B
:101C6000210AC1F10403CA40447804FA03F18478DC
:101C70001440214309010E4C0678A155047804F064
:101C80001F050124AC4005786D11AD0005F1E0257C
:101C9000C5F8004109E0047804F01F050124AC40B8
:101CA000044D0678761145F8264070BD0CED00E035
:101CB00000E400E080E100E07047000029B1064A3E
:101CC00012690243044B1A6104E0034A1269824319
:101CD000014B1A61704700000010024029B1064A0A
:101CE00092690243044B9A6104E0034A9269824379
:101CF000014B9A61704700000010024029B1064A6A
:101D0000D2680243044BDA6004E0034AD26882439B
:101D1000014BDA60704700000010024010B500F07F
:101D20002BF84FF4803000F0E9F800F045F9044654
:101D3000012C1FD14FF4E011000400F023F9012021
:101D400000F01AF900BF392000F0A6F80028FAD0F8
:101D5000022000F025F900BF00F0BCF80828FBD1F4
:101D6000002000F0BFF8002000F0FAF84FF4806087
:101D700000F0EAF810BD00000F48006840F00100D4
:101D80000D490860084640680C4908400A49486007
:101D9000084600680A490840074908600846006884
:101DA00020F4802008600846406820F4FE00486067
:101DB0004FF41F0088607047001002400000FFF8D9
:101DC000FFFFF6FE30B500210022002400232D4D38
:101DD0006D6805F00C0121B1042905D0082923D133
:101DE00005E0294D056022E0274D05601FE0254DE7
:101DF0006D6805F47012234D6D6805F4803402257A
:101E000005EB92421CB9214D554305600BE01D4D79
:101E10006D6805F400351DB11C4D5543056002E0A9
:101E2000194D5543056002E0174D056000BF00BF26
:101E3000144D6D6805F0F0010909154D6B5C0568DE
:101E4000DD4045600F4D6D6805F4E061090A104DF5
:101E50006B5C4568DD4085600A4D6D6805F4605136
:101E6000C90A0B4D6B5C4568DD40C560054D6D686A
:101E700005F44041890B074D6B5CC568B5FBF3F574
:101E8000056130BD0010024000127A0000093D00DB
:101E9000140000202400002010B501460022002379
:101EA00000204A11012A02D1094C236806E0022AC7
:101EB00002D1074C236A01E0054C636A01F01F025E
:101EC000012494401C400CB1012000E0002010BD12
:101ED000001002400248406800F00C00704700000B
:101EE0000010024001460020034A506820F0F00034
:101EF0000843506070470000001002401149096813
:101F000021F480310F4A11601146096821F48021C3
:101F10001160B0F5803F03D0B0F5802F0ED106E000
:101F20000849096841F48031064A116007E0054913
:101F3000096841F4A021034A116000E000BF00BF1E
:101F4000704700000010024001460020034A50681C
:101F500020F4E06008435060704700000010024029
:101F600001460020034A506820F4605040EAC10056
:101F70005060704700100240014908667047000039
:101F80000000424202460020044B586820F47C10B6
:101F900042EA01031843014B5860704700100240A9
:101FA00001460020034A506820F0030008435060B7
:101FB000704700000010024038B500200090002457
:101FC000002500BF3120FFF767FF05460098401C41
:101FD00000900098B0F5A06F01D0002DF2D0312014
:101FE000FFF75AFF08B1012400E00024204638BD65
:101FF000704710B500F002F810BD00000CB50020CD
:10200000019000903348006840F480303149086006
:1020100000BF3048006800F4003000900198401C78
:102020000190009818B90198B0F5A06FF1D1294836
:10203000006800F4003010B10120009001E00020A1
:1020400000900098012843D12348006840F0100018
:10205000214908600846006820F00300086008462F
:10206000006840F0020008601A484068194948605A
:102070000846406848600846406840F48060486010
:102080000846406820F47C1048600846406840F4E8
:10209000E81048600846006840F08070086000BFA3
:1020A0000C48006800F000700028F9D0094840682A
:1020B00020F00300074948600846406840F00200ED
:1020C000486000BF0348406800F00C000828F9D1C0
:1020D0000CBD00000010024000200240042808D17E
:1020E0004FF0E021096941F004014FF0E022116155
:1020F00007E04FF0E021096921F004014FF0E022F0
:10210000116170477047000010B51348006840F037
:1021100001001149086008464068104908400E490E
:102120004860084600680E4908400B4908600846A8
:10213000006820F4802008600846406820F4FE0013
:1021400048604FF41F008860FFF753FF4FF00060B6
:102150000449086010BD0000001002400000FFF8B4
:10216000FFFFF6FE08ED00E0704701F40072B2F5E3
:10217000007F00D100BFCA430280704721B182892D
:1021800042F40052828104E082894DF6FF731A40C6
:102190008281704710B504462048844209D101214C
:1021A0008803FFF7ABFD00214FF48040FFF7A6FD49
:1021B00032E01B48844209D101214804FFF77EFD2B
:1021C00000214FF40030FFF779FD25E015488442E7
:1021D00009D101218804FFF771FD00214FF480200F
:1021E000FFF76CFD18E01048844209D10121C804B2
:1021F000FFF764FD00214FF40020FFF75FFD0BE0C7
:102200000A48844208D101210805FFF757FD002143
:102210004FF48010FFF752FD10BD00000038014060
:102220000044004000480040004C00400050004086
:102230002DE9F04786B005460E460024A24600BFB1
:10224000A1460027B08900B100BF2F462C8A4CF66A
:10225000FF700440F08804432C82AC894EF6F310E2
:102260000440B08831890843718908430443AC8134
:10227000AC8A4FF6FF400440B0890443AC8201A809
:10228000FFF7A0FD1F48874202D1DDF810A001E052
:10229000DDF80CA0A88900F4004040B10AEBCA00A8
:1022A00000EB0A1031684900B0FBF1F807E00AEBD7
:1022B000CA0000EB0A1031688900B0FBF1F8642015
:1022C000B8FBF0F004012009642101FB1089A88902
:1022D00000F4004040B1322000EBC900B0FBF1F047
:1022E00000F00700044308E0322000EB09106421ED
:1022F000B0FBF1F000F00F0004432C8106B0BDE804
:10230000F08700000038014000BFFEE7490050EAB6
:10231000C12018BF04204A0D18BF40F0010040F250
:10232000FF72B2EB515F08BF40F00200012808BF06
:102330000520704730380A2801D20120704700205C
:10234000704700BFFEE701464FF0FF3070470000C6
:1023500000BF054A128802F04002002AF9D0C2B23A
:10236000014B1B1D1A807047003801402DE9F041D8
:1023700007460026152518E0701944100D4850F83E
:102380002410384601F0D8F902D2601E05B20CE0E4
:10239000084850F82410384601F0CEF802D2601CEC
:1023A00006B202E02046BDE8F081B542E4DA2846F4
:1023B000F9E70000500000200C48806940F004005C
:1023C0000A4988610A48006820F47F2008490860AB
:1023D0000846006840F44C30086005480830006842
:1023E00040F4C050024908310860704700100240B4
:1023F000040801402DE9F0470546884616461F4669
:10240000DDF82090002400F0F9F8002141EA4501B0
:10241000C8B200F08FF800F03DF920B100F014F9D7
:102420000120BDE8F087404600F084F800F032F962
:1024300018B100F009F90120F3E700F0DFF80121FD
:1024400001EB4501C8B200F075F800F023F918B1AE
:1024500000F0FAF80120E4E7781E87B206E000F009
:1024600011F8305500F03EF8601C84B2BC42F6DB37
:1024700000F008F8305500F099F800F0E5F8002079
:10248000CFE7000070B500241348006820F47040C6
:10249000114908600846006840F4004008600025C3
:1024A00016E000200D490860022000F045FB0120E5
:1024B0000B49C1F8B0016006040E08488438006872
:1024C00008B1601CC4B2012000F036FB681CC5B224
:1024D000082DE6DB204670BD04080140B001214212
:1024E0000000214210B500200F4908600F48006825
:1024F00020F470400D4908600846006840F44050E0
:10250000086000200A49C1F8AC01022000F014FB69
:10251000012005490860022000F00EFB002004495C
:10252000C1F8B00110BD0000B00121420408014013
:102530000000214270B504461948006820F470403C
:10254000174908600846006840F4405008600020C1
:102550001449086000251FE004F0800020B101202C
:102560001049091F086003E000200E49091F086098
:102570006006040E022000F0DFFA0120094908601D
:10258000022000F0D9FA00200749C1F8B00102206A
:1025900000F0D2FA681CC5B2082DDDDB70BD00006A
:1025A00004080140B00121420000214210B5002082
:1025B0000F4908600F48006820F470400D4908601A
:1025C0000846006840F44050086001200A49C1F8FC
:1025D000AC01022000F0B0FA012005490860022099
:1025E00000F0AAFA00200449C1F8B00110BD0000B3
:1025F000B0012142040801400000214210B50F48FB
:10260000006820F470400D4908600846006840F4F6
:102610004050086001200A4908600A49C1F8B00129
:10262000042000F089FA002005490860042000F029
:1026300083FA00200349C1F8B00110BD040801402D
:10264000AC0121420000214210B50F48006820F47F
:1026500070400D4908600846006840F4405008602A
:1026600000200A4908600A49C1F8AC01042000F0C2
:1026700063FA0120054908600549C1F8AC0104204E
:1026800000F05AFA10BD000004080140B0012142D8
:102690000000214210B51448006820F4704012492F
:1026A00008600846006840F40040086001200F49B7
:1026B000086000F041FA01200D49C1F8B00100F0B6
:1026C0003BFA07E0601CC4B2FA2C03DDFFF7BCFF45
:1026D000012010BD0548803800680028F2D1034968
:1026E000091D086000BFF4E704080140AC01214265
:1026F000000021422DE9F05F054600262846FFF73D
:1027000035FE0446601C10B3152C20D0114850F83B
:102710002410284601F041F883460F4850F8241051
:10272000584600F013FE814604EB84013222C2EBCE
:10273000410000F0E9FE8246494600F099FD8046DE
:10274000064900F02DFF074600F0C2FE064630465F
:10275000BDE8F09F50000020A40000200000C84207
:102760007047FFF7DBFA4FF4E13000F037FA00F082
:1027700085F901E000F036F9FCE710B50446682061
:102780002070002060700C20A0700020E07080207D
:102790002071FFF711FE10BD2DE9FC5F81464FF05F
:1027A000000B0024A246802089F8040099F801005B
:1027B00099F80210084399F80310084399F8041097
:1027C00040EA010B99F8020030B1042838D00828FB
:1027D0006AD00C2833D199E06420009099F8000069
:1027E000022301AA5946FFF705FE9DF8040040EABE
:1027F00004249DF8050040EA0424C4F30B04E00A15
:1028000088B1E443C4F30B01481C00F0F3FB074616
:102810000022704B00F002FC054600F061FA82468F
:102820008AF0004A0BE0204600F0E4FB0746002255
:10283000684B00F0F3FB054600F052FA82469DE03B
:102840006420009099F80000022301AA5946FFF77E
:10285000D1FD9DF8040040EA04249DF8050040EAFB
:102860000424C4F30D04600B88B1E443C4F30D01E8
:10287000481C00F0BFFB07460022574B00F0CEFB80
:10288000054600F02DFA82468AF0004A0BE0204609
:1028900000F0B0FB054600224F4B00F0BFFB07469F
:1028A00000F01EFA824669E06420009099F800006A
:1028B000022301AA5946FFF79DFD9DF8040040EA56
:1028C00004249DF8050040EA0424A4B2E00B80B182
:1028D000E443A1B2481C00F08DFB054600223F4BAB
:1028E00000F09CFB074600F0FBF982468AF0004AA4
:1028F0000BE0204600F07EFB07460022374B00F03D
:102900008DFB054600F0ECF9824637E0642000902C
:1029100099F80000032301AA5946FFF76BFD9DF8C3
:10292000040040EA04249DF8050040EA04249DF8D0
:10293000060040EA0424C4F31104600C88B1E443A7
:10294000C4F31101481C00F055FB05460022244B3E
:1029500000F064FB074600F0C3F982468AF0004AA3
:102960000BE0204600F046FB074600221C4B00F01F
:1029700055FB054600F0B4F9824600BF00BF99F848
:10298000010030B101280BD0022810D003281CD13F
:1029900014E04FF07E51504600F0D8FC824614E01F
:1029A0004FF08041504600F0D1FC82460DE04FF0E0
:1029B0008141504600F0CAFC824606E04FF0824159
:1029C000504600F0C3FC824600BF00BF5046BDE841
:1029D000FC9F00000000F03F0000D03F0000B03F2F
:1029E0000000903F2DE9FC411948FFF7D5FE194939
:1029F000086008460068FFF77DFE17490860084632
:102A0000006800F0F7FA06460022144B00F09AF92D
:102A1000044600F065F9124908604FF07E511048F5
:102A2000006800F025FC0F4908600846006800F0C7
:102A3000F3FB0D4B0DA2CDE900010EA1032000F028
:102A4000ADF84FF47A7000F045F8BDE8FC81000065
:102A500048000020440000203400002000005940BD
:102A60003C000020380000202C00002025733A256F
:102A70002E326600494E464F0000000010B5034854
:102A8000FFF77BFEFFF76CFE10BD00004800002042
:102A900010B56FF00400FFF721FB0A4800680A49EF
:102AA000B0FBF1F0094908700846007800EB4001DE
:102AB000C1EBC0104FF6FF7101EAC0000449088065
:102AC00010BD00000000002000127A00F800002075
:102AD000FA00002070B505461548007820B9FFF7C8
:102AE000D7FF0120124908701248008868434FF050
:102AF000E0214861002088610846006940F001003B
:102B0000086100BF4FF0E020046904F0010018B133
:102B100004F480300028F5D04FF0E020006920F068
:102B200001004FF0E02108610020886170BD0000C5
:102B3000FC000020FA00002070B50546154800781A
:102B400020B9FFF7A5FF012012490870124800784C
:102B500068434FF0E0214861002088610846006921
:102B600040F00100086100BF4FF0E020046904F06C
:102B7000010018B104F480300028F5D04FF0E020B7
:102B8000006920F001004FF0E02108610020886119
:102B900070BD0000FC000020F80000200FB438B524
:102BA00004460D46052C0FDC07A80090294608A016
:102BB000FDF78AFB00990698FDF780FB0020009046
:102BC00005A0FDF781FB00BF002038BC5DF814FBB9
:102BD0005B25735D3A0000000D0A000010B586B059
:102BE0000446012144F20400FFF778F82348FFF778
:102BF000D1FA4FF40070ADF8140018208DF81700CA
:102C000003208DF8160005A91D48FEF78DFF4FF42F
:102C10008060ADF8140004208DF8170005A918484D
:102C2000FEF782FF01940020ADF80800ADF80A001D
:102C3000ADF80C00ADF810000C20ADF80E0001A9A5
:102C40000E48FFF7F5FA25208DF8000002208DF8D8
:102C500001008DF8020001208DF803006846FEF7A0
:102C6000F3FF01210548FFF789FA40210348FFF7E8
:102C70007CFA00200349088006B010BD00380140EE
:102C8000000801402800002010B500290AD008786B
:102C9000002807D005487844FEF748FB002801D0FB
:102CA000002010BD0248784410BD00002A0D00002D
:102CB000220D000010B500290AD00878002807D09E
:102CC00005487844FEF732FB002801D0002010BDF3
:102CD0000248784410BD00001A0D0000120D0000DB
:102CE00021F00042A2F16052B2F5801F01F00043D2
:102CF00028BFD2F17F6C0BD95FEA001C43EAC20205
:102D000042EB507018BF704728BF20F00100704799
:102D1000B2F5801FBCBF184670474FEA410C1CF546
:102D2000001F02D2084600F002BD70B500F020FA84
:102D300000000089FFF7F6BF4FF00040A0F58000CB
:102D4000704700002DE9C04130B4DFF8A0C23CEA72
:102D5000111418BF3CEA131400F0EC8081EA03055B
:102D60001CEA111444EAD57418BF1CEA131500F0CC
:102D7000C780A4EB05044FF0004545EAC12145EAB0
:102D8000C32341EA505143EA525304F17F749942FC
:102D900004F500344FEAC0204FEAC22208BF904237
:102DA00000F09C804FEA13650FF24016765D4FEA03
:102DB000134506FB05F7C7F1807706FB07F74FEAD7
:102DC000D737A7FB03687642C8F58038A7FB06CE45
:102DD00038BFA8F1010807FB08E64FF0000EA6FB7C
:102DE000028CE6FB03CEDCF1000CCEF1004E38BFC6
:102DF000AEF1010EA6FB0C584FF000074FF0000596
:102E0000E6FB0E87A1FB08C6A0FB07CE16EB0E065D
:102E100045F10005E1FB076515F1E04E7EBFA4F525
:102E200080345FEA46066D4116F1800745F10005E2
:102E30004FEA17274FEA066647EA0567A6F1DE461E
:102E4000B6F1805F4FEA15251FD9384624F0010CF2
:102E500005EBC471BCF1FE6F01EB0C1102D8F0BCA4
:102E6000BDE8008124425CBF01F5801E9EEAC47F5C
:102E700002D4F0BCBDE80081244238D4F0BCA1F1FA
:102E8000C041BDE8004100F0C1B94FEAD22242EA98
:102E900043524FEAD323A7FB02864FEAD02040EAF1
:102EA000415007FB03661EEA0E0F4FEAD12105FBD6
:102EB000026658BFA6EB0056B6EB00564FEA520E1C
:102EC0004EEAC37E18EB0E0E56EB530EBDD518EB33
:102ED00002085E417F1C55F10005B6E74FF48015EE
:102EE0004FF000074FF000064FF00008ADE7F0BCD0
:102EF0004FF0000001F1C04101F00041BDE8008148
:102F000011EA0C1F0CEA131500D00CE013EA0C1F99
:102F100000F025804FF00000F0BC81EA030101F0D1
:102F20000041BDE80081F0BCBDE8004181EA030139
:102F300000F06CB9F0BCBDE8004170B500F018F9C4
:102F4000097EFC3E00F007B881EA03014FF0000063
:102F500001F00041704781EA030100F057B9F0BC6D
:102F6000BDE800414FF0000021497047FFFDFBF92B
:102F7000F7F5F4F2F0EEEDEBE9E8E6E4E3E1E0DEAC
:102F8000DDDBDAD8D7D5D4D3D1D0CFCDCCCBCAC81E
:102F9000C7C6C5C4C2C1C0BFBEBDBCBBBAB9B8B745
:102FA000B6B5B4B3B2B1B0AFAEADACABAAA9A8A838
:102FB000A7A6A5A4A3A3A2A1A09F9F9E9D9C9C9B06
:102FC0009A999998979796959594939392919190B1
:102FD0008F8F8E8E8D8C8C8B8B8A89898888878742
:102FE0008685858484838382828181800000FF07B7
:102FF0000000F87FB0FA80F310FA03F10AD0C3F1B1
:103000001D0303F580634FEA41504FEA035202EB80
:10301000D12170474FF0000070470000DFF848C131
:1030200070B51CEA111E1EBF1CEA13159EEA0C0F98
:1030300095EA0C0F00F06F8081EA030423EA4C1339
:103040004EEAD47E21EA4C1141F4801143F48013FE
:10305000AE44A1FB024CA0FB0365AEF17F7E3619A6
:1030600055EB0C05A1FB034C4CF10003A0FB021C2B
:1030700016EB0C06654153F10003094218BF46F0F8
:10308000010613F4007F0BD14FEA03314FEA0530FC
:10309000340341EA155140EA16506FF003020AE08A
:1030A0004FEAC3214FEAC520F40241EA555140EAF4
:1030B00056506FF0020202EB2E4201EB025585EAF8
:1030C000CE710AD05FEA440C18BF24F0004450F1DE
:1030D000000041F1000120EAD47040F2FE7C62451C
:1030E00000D270BDA84214BF4FF080444FF040445E
:1030F000002E08BF0024BEF1806FA8BFA1F1C0411F
:10310000BDE8704080F282804FF0000001F1C041C4
:1031100001F0004170479EEA0C0F0CEA131518BF2E
:1031200095EA0C0F06D04FF0000081EA030E0EF076
:10313000004170BD00F01CF88900013E00F007B8A6
:1031400000F009B84FEA430C5FEA5C5C08D081EA02
:10315000030100F05BB84FEA410C5FEA5C5CF6D11A
:103160004FF00000014970470000FF070000F87FA2
:103170000EF1020E2EF0030E5EF8046B364205D4FB
:10318000012A43EB030515F5001F12D8012841EB76
:10319000010C1CF5001F0CD80ED14FEAD17C15F59F
:1031A000001F0CEB4C0C0CF1020C08BF4CEBD37C59
:1031B00004E04FF0080C01E04FEAD37C0CEB4C0527
:1031C00026FA05F606F00706B6F1040C06D20EEB59
:1031D000860CBDE870404CF0010C6047DFE80CF055
:1031E000090B02024FF000414FF00000A1F5002151
:1031F00070BD19461046012851EB010418BFD4F5E3
:10320000001484BF002001F0004170BD0808A0F543
:1032100000114FEA3101704743004FEAD30C4FEAE7
:103220003C0C43401FBF40070CF1605113F0FE4FB0
:1032300070471CF0006F03D100200CF00041704774
:103240000CF0004343EA507010B540EACC0000F0A7
:1032500028FA00BF000000924FEA0001FFF7D6BF36
:103260004FF000414FF00000A1F500217047000031
:1032700090EA010F48BF81F0004100F1A082421A9C
:103280003CBF801A89184FEAD0524FF07F4C1CEA9D
:10329000410FA2EBD15318BF9CEA026F00F03B80B4
:1032A0004FF0004C4CEA00204CEA012121FA03FCCB
:1032B00010EB0C0C1ED202F1FF325FEA1C2040EB37
:1032C000C25038BF70471CF07F0F4FEA400C18BF48
:1032D000BCF17F4F38BF7047C3F12003994008BF4E
:1032E00020F00100BCF17F4F38BF7047A0F1C04013
:1032F00000F01DBA4FEA3C00000A40EBC25028BF64
:103300001CF0FF0F4FEA400CE6D018BFBCF17F4F16
:1033100038BF7047EAE79CEA026F05D010EA5C0FFD
:1033200008BF00F00040704710B500F0BAF900BFC8
:1033300064FBBE3E401058BFC0F14040491058BF2A
:10334000C1F140418142EFF3008070474FF47F0CA0
:103350001CEAD0121EBF1CEAD11392EA0C0F93EAAA
:103360000C0F00F0858090EA010F48BF42F4807294
:1033700040F4000C41F400002CF07F4120F07F402D
:1033800000B58142A2EB03020FF2081CACEB504ED9
:10339000C0F100009EF800E04FEA4E0E00FB0EFC6C
:1033A00038BF49004FEA2C1C02F5FA020CFB0EF361
:1033B0004FEACE1E4FEA112C4FEAC1210EEB635E9D
:1033C00042EB22420EFB0CFC4FEA1C5300FB0311A4
:1033D0004FEA112C4FEA01310EFB0CFC4FEADC4C9A
:1033E00000FB0C11C14228BF09184CEB03335DF8F8
:1033F00004EB10EB410143EBC250B2F57C0F38BF38
:10340000704729D512F0F00F1CBF00F1C04000F04A
:1034100000407047008182838485868788898B8CF1
:103420008D8E8F919293959697999A9C9D9FA0A22D
:10343000A3A5A7A8AAACAEB0B2B3B5B7B9BCBEC07D
:10344000C2C5C7C9CCCED1D4D7D9DCDFE2E6E9EC1E
:10345000F0F3F7FAFE0000004FEA400C0CF1807C1C
:10346000BCF17E4F28BF7047B0F1C04000F05FB99B
:1034700090EA010F0CEAD11348BF42F48072624512
:1034800038BF634507D213F47F0F16D080EA0100DE
:1034900000F00040704710B500F003F9097EFC3ED3
:1034A00000F005B880EA010000F00040704780EAB3
:1034B000010000F0004000F03AB912F47F0F04BFA1
:1034C0000248704780EA010000F031B90000C07F77
:1034D00041000B0ED3F19E0208D950F400034FEACD
:1034E000032323FA02F048BF4042704710B500F0B2
:1034F000D8F800BF49922480002070476FF0004246
:1035000082EA20007047000010F0004148BF4042AE
:10351000B0FA80F310FA03F2C3F19D030BD051EA25
:10352000C35101EB1220530638BF704700F1010070
:1035300008BF20F00100704750EA010C00F1138031
:103540001CF5000F58BFBCF5000F01D4884270472E
:1035500007D710F5000F58BF11F5000F15D488429A
:103560007047894270471CF5000F04D5BCF5000F69
:10357000F7D5814270474FF0807C1CEB400F38BF7D
:103580001CEB410F01D28142704710B500F089F861
:10359000922449004FF000504FF08051FFF7CABE0F
:1035A0004FF47F0C1CEAD0121EBF1CEAD11392EA22
:1035B0000C0F93EA0C0F00F0478090EA010F48BF10
:1035C00042F480724FF0004C4CEA00204CEA01219A
:1035D00002EB0302A0FB0113A2F50002002918BFB1
:1035E00043F001035B0028BF4FEA330342EB224262
:1035F0005FEA132C4CEBC2502EBFBCEB436FB2F50D
:103600007C0F70474FEA036CBCF1004F08BF20F0FD
:103610000100B2F57C0F38BF70470BD582F0FF0276
:1036200012F5803FC8BF704700F1C040D8BF00F01E
:103630000040704700F5000C5FEA4C0C48BF704733
:10364000B0F1C04000F073B890EA010F0CEAD1135A
:1036500048BF42F48072624538BF634504D280EAB5
:10366000010000F00040704710B500F01AF800BFEC
:103670008900013E00F007B800F009B85FEA410C8C
:103680005FEA1C6C08D080EA010000F050B85FEAE5
:10369000400C5FEA1C6CF6D14FF00040A0F58000B2
:1036A00070470EF1020E2EF0030E5EF8044B24421A
:1036B00004D44FEA4102B2F17F4F11D84FEA4003E0
:1036C000B3F17F4F0CD80ED14FEAD07CB2F17F4FCF
:1036D0000CEB4C0C0CF1020C08BF4CEBD17C04E061
:1036E0004FF0080C01E04FEAD17C0CEB4C0324FABC
:1036F00003F404F00704B4F1040C06D20EEB840CBE
:10370000BDE810404CF0010C6047DFE80CF0070802
:1037100002024FF00040A0F5800010BD08464200B4
:1037200018BFD2F1807288BF00F0004010BDFF21A9
:1037300041EAD050C005704751EA000C00F11380F7
:103740001CF5000F58BFBCF5000F01D48142704733
:1037500007D711F5000F58BF10F5000F15D481429F
:103760007047894270471CF5000F04D5BCF5000F67
:10377000F7D5884270474FF0807C1CEB410F38BF73
:103780001CEB400F01D28842704780EA010081EAB9
:10379000000180EA0100FFF7F8BE80F0004090EAE7
:1037A000010F7FF56CAD81F0004100F008B800001A
:1037B00090EA010F48BF81F000413FF560AD421A29
:1037C00004D882F00042A0EB020011444FEAD0522C
:1037D0004FF07F4C1CEA410FA2EBD15318BF9CEA7B
:1037E000026F4AD04FF0004C4CEA00204CEA012115
:1037F00021FA03FCB0EB0C0C0FD412F0FE0F36D004
:103800005FEA4C001DD5001240EBC25038BF704734
:103810001CF03F0F18BF70470BE0A2F101025FEAF6
:103820001C2040EBC25038BF70471CF07F0F18BF00
:103830007047C3F12003994014BF401E20F00100DF
:10384000704780084FEA122308BF7047B0FA80FC27
:10385000A2EB0C02CCF1280C60FA0CF093EA122FC8
:1038600004BF00EBC25070474FEAC3707047130AA1
:103870005FEADC1008BF7047F6E79CEA026F04D0ED
:1038800010EA5C0F08BF0020704710B5FFF709FF72
:1038900040DFF63E81F000407047FDF756B9FDF776
:1038A0008BBA0400000800000000000000020001C4
:1038B0000000100000000000000000003031323332
:1038C0003435363738394142434445464030580054
:1038D0003031323334353637383961626364656686
:1038E0004030780030313233343536373839616220
:1038F000636465667870003031323334353637387A
:1039000039414243444546585000000002400000FF
:10391000000000A00000000005400000000000C8FA
:10392000000000000C4000000000409C000000006F
:10393000194000000020BCBE000000003440000020
:10394000BFC91B8E00000004B5400000504BCFD013
:103950006607E2CF010000006C4100003E8251AAE0
:10396000DFEEA73401000000D9420000DCB5A0E280
:103970003A301F97FFFFFFFFB4450000FD25A0C8A8
:10398000E9A3C14FFFFFFFFFFF3F000000000080E1
:1039900000000000FF3F0000000000800000000069
:1039A000EC3A0008000000200C0100006C01000847
:1039B000F83B00080C0100206406000088010008A4
:1039C0001C00000043000000F8FFFFFF0C00000097
:1039D0000E0000000F0000002E000000100100008B
:1039E00043000000F8FFFFFF0040404040404040DF
:1039F00040404141414141404040404040404040C2
:103A00004040404040404040400502020202020265
:103A100002020202020202020220202020202020B4
:103A200020202002020202020202909090909090C8
:103A30001010101010101010101010101010101086
:103A400010101010020202020202888888888888FA
:103A500008080808080808080808080808080808E6
:103A600008080808020202024000000000000000EE
:103A70000000000000000000000000000000000046
:103A80000000000000000000000000000000000036
:103A90000000000000000000000000000000000026
:103AA0000000000000000000000000000000000016
:103AB0000000000000000000000000000000000006
:103AC00000000000000000000000000000000000F6
:103AD00000000000000000000000000000000000E6
:103AE00000000000000000000000000000A24A04E6
:103AF000000000000000000001020304060708099E
:103B00000000000001020304010203040607080983
:103B10000204060800000000617070000000000050
:103B20000000000000000000000000000000000095
:103B30000000000000000000000000001DCEA844AE
:103B4000FA92A244BC4C9C444AFC95443DA28F444A
:103B5000963F8944B4D4824433C3784487CE6B44BF
:103B600064CB5E4473B851440A974444E9663744D1
:103B7000DB292A445CDF1C447D870F444423024434
:103B80004861E943985ECE43FE14B3437B64974398
:103B90001F859F40D7A3A040CBA1A1408D97A240F5
:103BA000BC74A340BA49A440B81EA540F2D2A540B7
:103BB0005C8FA640295CA7406210A840CDCCA840ED
:103BC000A470A940AC1CAA40B4C8AA408B6CAB40FE
:103BD000C520AC402FDDAC40F0A7AE404C37B14023
:103BE0004C37B14000000000000000000000000061
:083BF00000000000A55AA55ACF
:0400000508000131BD
:00000001FF
